:0400000010EF01F00C
:100008005B82D9CF03F0DACF04F020D0AECF6DF108
:10001800010118511711161103E1040E155DD8B02E
:100028006C6B4A0E6C19D8B46C07940E6C25D96E9B
:10003800DA6A050EDA226DC1DFFF6C2B000E156F30
:10004800000E166F000E176F000E186F9EBADED7DF
:100058009EB89DA853D0000E01016825D96EDA6AB2
:10006800050EDA22DF50AD6E682B67516819D8B4D7
:1000780004D04A0E6819D8A402D09D98686B000E67
:10008800156F000E166F000E176F000E186F36D022
:1000980071B4D0A20CD0020E01017019D8B407D0E7
:1000A80074CF6DF16D51D8A404D0FF0002D074CF85
:1000B8006DF1D0826DC173FF320E01016B19D8B496
:1000C8006B07080E6D19D8A405D06B51D8B402D0AF
:1000D8006B0714D00D0E6D19D8B404D00A0E6D1923
:1000E800D8A403D06D6B6B29696FAC0E6B25D96EE4
:1000F800DA6A030EDA226DC1DFFF6B2BA4AA84D063
:10010800C7D701018351D8B468D06451D8B431D06D
:10011800580E295D020E2A59D8B002D0899801D00C
:100128008988898A2951016E2A51026E294B2A2B06
:10013800BD0E015C020E0258D8A016D082A202D0D1
:10014800010E01D0000E6519D8A40AD0890E295DC8
:10015800130E2A59D8A008D0000E2A6F000E03D01B
:10016800020E2A6FBC0E296F000E2C6F000E2B6F2B
:1001780034D06351D8B431D0580E2B5D020E2C59AF
:10018800D8B003D08988899A02D08988898A2B5166
:10019800016E2C51026E2B4B2C2BBD0E015C020EF6
:1001A8000258D8A016D082A202D0010E01D0000EAB
:1001B800C119D8A40AD0890E2B5D130E2C59D8A0CA
:1001C80008D0000E2C6F000E03D0020E2C6FBC0E50
:1001D8002B6F000E2A6F000E296F010E1927000ED3
:1001E8001A231B231C23010E1527000E1623172381
:1001F800182358075829D8A406D055C167FF0A0EF6
:10020800586F010E576F7E907EB07BD704C0DAFF1F
:1002180003C0D9FF5B9211005BEF4AF006012A6B1D
:100228002B6B086B286B046B056B010E076F26EEB2
:100238001BF00B0EDE6AE806FDE226EE0BF00B0E55
:10024800DE6AE806FDE2080E2C6F000E176F000E3E
:10025800186F000E196F000E1A6F000E006F000E57
:10026800016F000E026F000E036F020E276F096BFD
:100278000A6B1CEC4DF022EC37F00A0E0101D30397
:10028800F3CFB0F1F4CFB1F1D403F350B127B0C13B
:100298002DF1B1C12EF102EC59F089869CEC50F099
:1002A8004AEC57F0D082B8EC56F005C027F106C0EA
:1002B80028F15EEC3EF006012E6F020E2E19D8A42E
:1002C80003D0800E01016F6F000E31EC4BF05951D5
:1002D800D8A440EC43F001016951D8A4B5EC12F060
:1002E8004A51D8B411D018511711161104E1070E4C
:1002F800155DD8A009D08A8A000E066E010E056E1B
:100308000EEC56F09D884A6B6851D8B4ACA201D067
:100318008A9A71EC4EF0A30E946E00000000825091
:10032800210B06012E6F2E39E8461F0B0101C06F05
:1003380006012E512E25020B0101C0138150010B1D
:10034800C013820E946E070EC019D8A404D0BF51F2
:10035800C019D8B403D0C05105EC28F0010E5F6570
:1003680025D0270E5F6122D0880E020134250101B5
:10037800B06F130E020135210101B16F000E0201A9
:1003880036210101B26F000E020137210101B36F5E
:100398001951B05D1A51B1591B51B2591C51B35979
:1003A800D8B004D05E51D8B4FEEC48F001015F51DA
:1003B800D8A419D0060EC019D8A415D08451D8B421
:1003C80012D006010651D8A40ED0030E01018019DF
:1003D800D8A409D08451FF0A030B22EC55F0050E6E
:1003E8000601066F0BD006010651D8B407D0070ED8
:1003F8000101C019D8A402D00601060781A402D0C1
:10040800010E01D0000E06010719D8A403D02A5105
:10041800D8B4BBD0052B05050101B06F330EB06110
:1004280004D006012A51D8B4B2D0000E81B4010E0E
:100438000601076F0751D8B461D09CD05151D8A498
:1004480002D0010E01D0000E1BEC57F066D0010E51
:100458001BEC57F062D006012A51D8A40AD0010E2D
:100468002A6F19C100F61AC101F61BC102F61CC198
:1004780003F62A51D8B451D0DC0E00250101B06F23
:10048800050E060101210101B16F000E06010221CE
:100498000101B26F000E060103210101B36F19516A
:1004A800B05D1A51B1591B51B2591C51B359D8B04A
:1004B80034D0020E7019D8A430D00A0E31EC4BF0AB
:1004C8005951D8A402D00F0E5C6F020E06012A6F94
:1004D80024D0020E8419D8A420D0010E22EC55F0A5
:1004E8001CD0020E7019D8A418D00A0E31EC4BF0AB
:1004F8005951D8A412D00F0E5C6F0FD00101805152
:10050800010AD8B49BD7030AD8B4A1D7010AD8B432
:10051800A2D7070AD8B4DDD7E4D701017F05D8B43C
:100528006FA902D081A26F993C0E626F89862DD087
:10053800000E1BEC57F029D0020E06012A19D8B478
:100548000FD001018405D8A404D0020E22EC55F086
:1005580007D0020E8419D8A403D0010E22EC55F05E
:1005680006012A6B12D08405D8A40FD0020E22EC03
:1005780055F00BD001018051020AD8B4D9D7010A2D
:10058800D8B4DAD7070AD8B4EED70601056B01014B
:100598007F05D8B481A20BD081A209D07051D8B4FC
:1005A80003D0090E31EC4BF0100E6F6F616B020E29
:1005B8007A19D8A408D05151D8A403D0010E646F79
:1005C80007D0646B05D0020E7019D8A4F7D7F9D7F5
:1005D8007005D8B404D0020E7019D8A403D0010E47
:1005E800636F01D0636B7051D8B408D0040E7019D2
:1005F800D8B404D0090E7019D8A499D0F4EC51F0ED
:1006080006012D6F2D05D8A41FD0020E01017A19FD
:10061800D8A40BD006012851D8A407D00101510550
:10062800D8A403D03C0E0601286F01017051D8B43C
:1006380003D0000E31EC4BF06E6906012751D8A4A7
:1006480076D0010E276F73D0020E2D19D8B404D0BE
:10065800020E2D19D8A469D001016F51D8A465D014
:100668005C51D8A462D05151D8B45FD0040E70192F
:10067800D8B45BD06E05D8A453D006012B2B2B051C
:100688000101B06F190EB06552D04C6BBCEC4EF046
:10069800D151355DD2513659D8B008D00A0E35033C
:1006A800F3CFB0F1F4CFB1F1360307D00A0ED1037E
:1006B800F3CFB0F1F4CFB1F1D203F350B127B0C109
:1006C80033F1B1C134F1010E816504D0040E31EC6F
:1006D8004BF02DD05DEC3DF00009D8B419D00A0ECE
:1006E8003503F3CFB0F1F4CFB1F13603F350B127AE
:1006F800B0C100F3B1C101F333C168F234C169F28A
:10070800010E31EC4BF01E0E4B6F0601286B0FD01B
:10071800020E8419D8A402D06F8B09D06F8107D03C
:10072800010E6E6F06012B6B02D001016E69050E7A
:1007380001017019D8A407D0010E31EC4BF01E0E40
:100748004B6F0601286B01017005D8B404D0060E62
:100758007019D8A4A4D0070EBC6487D0180EBC604A
:1007680084D0F4EC51F006012D6F2D05D8A412D0D9
:1007780001016E51D8A40CD006012B2B2B050101C9
:10078800B06F190EB06571D0000E31EC4BF06DD022
:100798006E6B5AD0030E2D19D8A459D0020E010140
:1007A8006E19D8A44FD04C05D8A44CD006012B2BD9
:1007B8002B050101B06F190EB06557D06F51D8A441
:1007C80054D05C51D8A451D07B51D8B40DD0060177
:1007D8002751D8B409D017C630F218C631F219C655
:1007E80032F21AC633F2276B010E0101816508D077
:1007F800060E7019D8B439D0060E31EC4BF035D04E
:1008080033C100F334C101F35DEC3DF00009D8B405
:1008180011D0000E0201696F000E686F010E33ECF3
:100828001FF0020E31EC4BF05F51D8A41ED0F9EC4A
:1008380018F01BD0020E8419D8A402D06F8B15D0E3
:100848006F8113D0020E6E6F06012B6B0ED0010163
:100858004B51D8A408D0080E31EC4BF0030E06011A
:10086800086FBD6A829401016E69E60EBC6417D0F8
:10087800F10EBC64FDD7F10EBC6411D0F90EBC605A
:100888000ED0F4EC51F006012D6F040E2D19D8A4EA
:1008980004D0010E01014C6F02D001014C6B0A0E0D
:1008A80001017019D8A432D0F4EC51F006012D6F73
:1008B8002D05D8A412D001016E51D8A40CD0060180
:1008C8002B2B2B050101B06F190EB0651FD0000E40
:1008D80031EC4BF01BD06E6B17D0020E2D19D8A43B
:1008E80015D0090E01016E19D8A40CD006012B2BC6
:1008F8002B050101B06F190EB06508D0090E31EC57
:100908004BF004D0090E6E6F06012B6B080E010127
:100918007019D8A409D006010851D8A405D0010E31
:1009280031EC4BF082844B69070E01017019D8A491
:1009380008D0020E31EC4BF06E695F51D8B4F9EC77
:1009480018F0020E01017019D8A444D0070EBC6437
:1009580041D0180EBC603ED0F4EC51F006012D6F6A
:100968002D05D8B403D02D51D8A414D001016E514F
:10097800D8A40ED006012B2B2B050101B06F190E40
:10098800B06528D0000E31EC4BF09CEC50F022D032
:100998006E6B1BD0020E2D19D8A41AD001016E055A
:1009A800D8A411D006012B2B2B050101B06F190E0D
:1009B800B06510D08A98010E31EC4BF09CEC50F0E9
:1009C80001014C6B07D0010E6E6F06012B6B02D034
:1009D80001016E69ABA202D0AB98AB8871A202D0BC
:1009E80071987188D6CF2EF63C0ED76430D20101AB
:1009F8006E29D8B404D0020E7019D8B428D2D76A98
:100A0800D66AACEC55F04DEC41F07005D8A403D093
:100A18004B29D8A44B07080E7019D8A404D0060196
:100A28000851D8A408070A0E01017019D8A416D0D5
:100A38005B51D8B402D05B0711D0370E00016F6F3D
:100A4800F90E706F8FEC57F08A98090E31EC4BF065
:100A58009CEC50F001014C6B0F0E5C6F2551261178
:100A6800D8B40FD02507D8A0260725512611D8A419
:100A780008D0020E7019D8A403D00A0E31EC4BF03E
:100A88006F8B5C51D8A45C0706012851D8B40BD0F1
:100A980001017051D8A407D00601282F06D0000EF6
:100AA8001BEC57F002D00601286B0101405179195F
:100AB800D8B472D006010A51D8A46ED001014D51A4
:100AC800D8B46AD0020E7919D8A420D0090E61656D
:100AD8001DD04205D8B41AD006010951D8A416D0A1
:100AE800C60E00016F6FF90E706F8FEC57F0010E94
:100AF8000601096F080E0001B76F010EB66F79C1C4
:100B0800B8F0B96B0A0EEAEC56F043D0010179054A
:100B1800D8A413D04C0E00016F6FFA0E706F8FECD3
:100B280057F0080E0001B76F010EB66F79C1B8F023
:100B3800B96B0A0EEAEC56F02CD07951D8A413D030
:100B4800C60E00016F6FFA0E706F8FEC57F0080E2B
:100B58000001B76F010EB66F79C1B8F0B96B0A0E14
:100B6800EAEC56F016D04005D8A413D00601095176
:100B7800D8B40FD0180E00016F6FF80E706F8FEC9D
:100B880057F0010E0101796F5F6B0601096B2DECBF
:100B98002FF0050E06010A6F06010A51D8A40A07AC
:100BA80001016051800A490FD8A06FA501D06F9547
:100BB8006FC1B0F1210EB017D8B415D0020E816103
:100BC80012D05DEC3DF00009D8B40DD06F916F9B49
:100BD800000E0001B76F010EB66F6FC1B8F0B96BA8
:100BE800090EEAEC56F04851D8A4480706012E6BC6
:100BF800070E2E6501D022D0180E2E25D96EDA6A7E
:100C0800020EDA22020EDE18D8A40CD02E51080DDE
:100C1800980EF324D96E020EF420DA6EDE2A000E46
:100C2800DD220AD02E51080D980EF324D96E020E3B
:100C3800F420DA6EDE6ADD6A2E2BDAD7010146511E
:100C4800D8B46AD046072F0E466534D0060E87EC16
:100C580048F00601296F2951D8A405D0300E0101AA
:100C68004619D8A436D006012951FEEC44F0C7EC49
:100C780058F0010E0101456F300E466F2AD0020E62
:100C880087EC48F00601296F2951FEEC44F0C7ECC7
:100C980058F00101456B1DD0FE0E87EC48F00601A7
:100CA800296F2951FEEC44F0C7EC58F0010E010100
:100CB800456F0FD046510F0BB06FB16BB151000AA1
:100CC800D8A407D0B051000AD8B4E6D7060AD8B4D9
:100CD800D6D74651D8A420D04751080D960EF324F4
:100CE800D96E020EF420DA6EDF50D8A413D0475123
:100CF800080D960EF324D96E020EF420DA6ECF5149
:100D08000A0DF3CFDFFFE40E00016F6FF70E706F6F
:100D18008FEC57F001014769C251D8B46FB324D0A2
:100D28006F834D6B020E7019D8A404D00A0E31ECF3
:100D38004BF003D0090E31EC4BF0740E00016F6FCD
:100D4800F70E706F8FEC57F0020E010181610FD022
:100D5800000E0001B76F010EB66F6FC1B8F0B96B26
:100D6800090EEAEC56F003D0C251D8A4C20760516C
:100D7800800A3F0FD8B06FB51AD06F85020E701970
:100D8800D8A404D00A0E31EC4BF003D0090E31EC94
:100D98004BF0C90E00016F6FF70E706F01016051C3
:100DA8000001716F726B71BF72078FEC57F06FC1E2
:100DB800B0F1210E0101B017D8B429D06FAB0BD018
:100DC8005C51D8A412D0AD0E00016F6FF70E706F92
:100DD8008FEC57F00AD05C51D8A407D04C0E000114
:100DE8006F6FF60E706F8FEC57F0020E01017019DD
:100DF800D8A404D00A0E31EC4BF007D00A0E7019B3
:100E0800D8B403D0090E31EC4BF03C0E5C6FF9EC12
:100E180018F0020E010181611AD04851D8A417D0E8
:100E2800060104070429D8A412D001018451D8B4BA
:100E380003D0010E546F08D0000E326F000E316FD0
:100E4800060E546F0A0EC26F010E0601046F0101EF
:100E58005451D8B411D118511711161105E1640E67
:100E6800155DD8B0CDD008D1CBD07D51D8B406D03F
:100E7800D6C1BFF07D51D7EC43F0FED0542BD7C17B
:100E8800BFF0D851D7EC43F0F7D006012C2B070E52
:100E98002C6501D02C6B2C51080D920EF324D96EC1
:100EA800020EF420DA6EDF50D8B4EFD72C51080DBB
:100EB800930EF324D96E020EF420DA6EDF50D8B404
:100EC80004D02C5167EC58F0D7D00101542B0601FF
:100ED8002C51080D940EF324D96E020EF420DA6E0C
:100EE800DF50D8B418D02C51080D950EF324D96EC4
:100EF800020EF420DA6EDF500001BF6F06012C519C
:100F0800080D940EF324D96E020EF420DA6EDF5029
:100F1800D8EC50F0B1D00101542B090EBE6118D0A5
:100F2800BE51080D950EF324D96E020EF420DA6E28
:100F3800DF500001BF6F0101BE51080D940EF3246C
:100F4800D96E020EF420DA6EDF50D7EC43F094D05D
:100F580006012C51080D940EF324D96E020EF420CC
:100F6800DA6EDF50D8B418D02C51080D950EF32442
:100F7800D96E020EF420DA6EDF500001BF6F060151
:100F88002C51080D940EF324D96E020EF420DA6E5B
:100F9800DF50A6EC57F070D00101542B8105D8A47E
:100FA80005D05451FA0F4DEC51F066D00C0E546F29
:100FB8008105D8A405D05451F30F9DEC38F05CD0CE
:100FC8008451D8B405D06FB318D073EC49F015D05C
:100FD800000E33EC1FF001018105D8B4F4EC58F091
:100FE8007005D8B404D0020E7019D8A406D068C20F
:100FF80036F069C237F08BEC45F00101546B3CD0F8
:10100800542B5405010AD8B430D7030AD8B437D7BB
:10101800010AD8B43AD7070AD8B459D7010AD8B4BC
:101028007CD7030AD8B4BAD7010AD8B4B7D70F0AFD
:10103800D8B4B4D7010AD8B4B1D7030AD8B4AED754
:10104800010AD8B4ABD7070AD8B4A8D7010AD8B4CC
:10105800AFD7030AD8B4ACD7010AD8B4A9D71F0AA6
:10106800D8B4A6D7010AD8B4A3D7030AD8B4A0D74E
:10107800010AD8B49DD7A4D701016C51D8B485D240
:1010880018511711161104E1040E155DD8A07DD270
:101098004A0E056E050E066E940E076E050E086E56
:1010A8006CC109F00A6ABBEC53F06CC16AF101012A
:1010B8006C6B4A0E00017E6F050E7F6F6AC180F06F
:1010C8005AEC2DF0030E01010B19D8B499D1A0D117
:1010D8007D51D8B421D0D6510019D8A41DD07D5146
:1010E800190D100EF324D96E040EF420DA6EDE50BA
:1010F800021912E1DE500319D8A40ED008C1BAF0C3
:1011080009C1BBF07DC1BCF00B0E0001BD6F060E1E
:10111800BE6FBAEC23F039D2D851D8B494D0D75195
:101128000019D8A490D0D851190D100EF324D96EF7
:10113800040EF420DA6EDE50021903E1DE500319C2
:10114800D8A481D008C1BAF009C1BBF0D8C1BCF09D
:101158001B0E0001BD6F060EBE6FBAEC23F0060130
:101168002E6F2E51D8B406D0020E0101816102D033
:101178000A0EC26F000E0101306F000E2F6F0601BC
:101188002E6B020E2E6501D000D201017D51D8B41C
:1011980022D006012E51040D0B0EF324D96E060E33
:1011A800F420DA6EDECFB0F1DECFB1F1DECFB2F1EE
:1011B800DECFB3F12E51040D1B0EF324D96E060EAB
:1011C800F420DA6E0101B051DE5EB151DE5AB2513F
:1011D800DE5AB351DE5A06012E51040D1B0EF324BC
:1011E800D96E060EF420DA6EDECF11F0DECF12F0E3
:1011F800DECF13F0DECF14F0640E156E000E166EFF
:10120800000E176E000E186EFCEC4BF006012E5106
:10121800020D710EF324D96E010EF420DA6E11C09E
:10122800DEFF12C0DDFF2E51020D710EF324D96EC0
:10123800010EF420DA6EDE5001012F27DD50302335
:1012480006012E2B9ED7090EBE612ED0BE51080D69
:10125800950EF324D96E020EF420DA6E0051DE18D2
:10126800D8A493D1BE51080D940EF324D96E020E62
:10127800F420DA6EDF50B06FB051190D100EF32460
:10128800D96E040EF420DA6EDE50021903E1DE5046
:101298000319D8A47AD108C1BFF009C1C0F0BEC1F2
:1012A800C1F0E0EC3FF071D17B51D8B482D0D55178
:1012B8000019D8A47ED07B51190D160EF324D96ECF
:1012C800040EF420DA6EDE5002193AE1DE500319FA
:1012D800D8A436D008C144F009C145F07BC146F016
:1012E80061EC4CF044C017F645C018F646C019F634
:1012F80047C01AF6020E06012719D8A408D017C647
:1013080030F218C631F219C632F21AC633F20201A7
:1013180030510601175D0101116F020131510601BB
:1013280018590101126F02013251060119590101C0
:10133800136F0201335106011A590101146F25D1A7
:101348007B51190D130EF324D96E040EF420DA6EB6
:10135800DE50021915E1DE500319D8A411D008C1D6
:1013680044F009C145F07BC146F094EC46F044C016
:101378002CF245C02DF246C02EF247C02FF205D1FF
:101388007B51190D100EF324D96E040EF420DA6E79
:10139800DE50021988E1DE500319D8A4F6D008C13E
:1013A800BFF009C1C0F0000E0001C16FE0EC3FF0D2
:1013B800ECD08105D8A4E9D0010E0065E6D0090E6D
:1013C8000061E3D002510311D8A40AD008C1BCF0CF
:1013D80009C1BDF000050001BE6F6DEC44F0D5D029
:1013E800080E021902E10305D8A4CFD008C1BAF04B
:1013F80009C1BBF000050001BC6F62EC52F0C5D01A
:101408000151030AD8B464D6070AD8B461D6BDD04E
:10141800020E0B19D8A4AED00A0E0019D8A416D003
:10142800060E0119D8A412D0A80E02190311D8A4C7
:101438000DD04F0E06190AE1490E0719D8A406D097
:101448005951D8A403D0596910EF01F0020E8161F7
:1014580009D0040E486FEE0E00016F6FF50E706F25
:101468008FEC57F0090E01010019D8B475D08151DD
:10147800D8A403D00005D8B46FD08151D8B485D092
:1014880081510019D8B468D080D0090E0019D8B499
:101498007CD02BEC52F079D005EC4FF076D0200EB2
:1014A80002190311D8A455D0010E816552D081517B
:1014B800B06FB16BD890B037B137B0510825B26F63
:1014C800B1510921B36FFE0EB225D96EFF0EB321BB
:1014D800DA6EDF50B46FB451B66FB56B8151B76F28
:1014E800B86BD890B737B837B7510825B96FB85126
:1014F8000921BA6FFF0EB925D96EFF0EBA21DA6E2F
:10150800DF50BB6FBB51B5110201686F0101B651C5
:101518000201696F68516911D8A409D0020E01014E
:101528007019D8A404D00A0E31EC4BF00ED001018A
:101538007005D8B404D0020E7019D8A406D068C2B9
:1015480036F069C237F08BEC45F00A0E0101C26F24
:101558001CD010EC46F019D00151030AD8B495D725
:10156800070AD8B492D7020AD8B496D7160AD8B4BC
:1015780096D70BD0040E0B19D8B407D0D70E00019C
:101588006F6FF90E706F8FEC57F001016FA36BEF5F
:1015980001F00A0EC219D8A46BEF01F06F936BEF3C
:1015A80001F095EF12F0250E4B18D8B431D02C501D
:1015B800D96EDA6A020ED926DE50DE10D8B413D0FE
:1015C8002C50D96EDA6A020ED92602D895EF12F09D
:1015D8000500FA6EDE50FD6EDE50FE6EF850FF6EAE
:1015E800FA504B5012002C50D96EDA6ADECF31F027
:1015F800DDCF32F031C0D9FF32C0DAFF4BC0DFFF98
:101608002C50D96EDA6ADE2A000EDD2295EF12F030
:10161800000E4A6E000E496E000E4D6E000E4C6EA6
:1016280009D04C8605D04C8003D04D8601D04C841F
:101638002D4A2E2A2DC0F6FF2EC0F7FFF86A0F0E8E
:10164800F76403D00800F55005D0F6CFE1FFF7CFD7
:10165800E2FFE750200AD8B4E6D7030AD8B4E5D7A2
:101668000E0AD8B4DED71D0AD8B4E1D74CB64C94CC
:101678002DC0F6FF2EC0F7FFF86A0F0EF76403D0EF
:101688000800F55005D0F6CFE1FFF7CFE2FFE750AD
:1016980010EC59F0D8A044D0000E4A6E000E496EE6
:1016A80049C005F04AC006F0000E086E0A0E076E23
:1016B8000DEC58F005C049F006C04AF02DC0F6FF01
:1016C8002EC0F7FFF86A0F0EF76403D00800F55034
:1016D80005D0F6CFE1FFF7CFE2FFE750316ED00E2D
:1016E8003124326E336AFF0E33223250492633508A
:1016F8004A222D4A2E2A2DC0F6FF2EC0F7FFF86A7F
:101708000F0EF76403D00800F55005D0F6CFE1FFBF
:10171800F7CFE2FFE75010EC59F0D8A023D0C0D79C
:101728002DC0F6FF2EC0F7FFF86A0F0EF76403D03E
:101738000800F55005D0F6CFE1FFF7CFE2FFE750FC
:101748002A0AD8A40FD02FC0D9FF30C0DAFF020E62
:10175800DF26DF5CD96EDA6ADECF49F0DECF4AF0E9
:101768002D4A2E2A2DC0F6FF2EC0F7FFF86A0F0E5D
:10177800F76403D00800F55005D0F6CFE1FFF7CFA6
:10178800E2FFE7502E0AD8A472D04D8C2D4A2E2A9B
:101798002DC0F6FF2EC0F7FFF86A0F0EF76403D0CE
:1017A8000800F55005D0F6CFE1FFF7CFE2FFE7508C
:1017B8002A0AD8A417D02FC0D9FF30C0DAFF020EEA
:1017C800DF26DF5CD96EDA6ADECF47F0DECF48F07D
:1017D80048AE05D0000E486E000E476E4D9C2D4A4F
:1017E8002E2A8CD1000E486E000E476E2BD047C0B3
:1017F80005F048C006F0000E086E0A0E076E0DECE4
:1018080058F005C047F006C048F02DC0F6FF2EC0BE
:10181800F7FFF86A0F0EF76403D00800F55005D0FB
:10182800F6CFE1FFF7CFE2FFE750316ED00E31245B
:10183800326E336AFF0E3322325047263350482225
:101848002D4A2E2A2DC0F6FF2EC0F7FFF86A0F0E7C
:10185800F76403D00800F55005D0F6CFE1FFF7CFC5
:10186800E2FFE75010EC59F0D8A048D1C0D7000EDD
:10187800486E000E476E42D14C8840D14C8C76D1D0
:101888004C8A4C8E73D12FC0D9FF30C0DAFF020EBC
:10189800DF26DF5CD96EDA6ADECF3FF0DECF40F0BC
:1018A8003F504010D8A404D0FB0E3F6EFB0E406E94
:1018B800000E426E000E416E02D0414A422A41504B
:1018C8003F24316E42504020326E31C0F6FF32C0A4
:1018D800F7FFF86A0F0EF76403D00800F55005D03B
:1018E800F6CFE1FFF7CFE2FFE7500009D8A4E5D72C
:1018F80047504810D8B40ED04150475C4850800A31
:10190800316E4250800A3158D8B004D047C041F0F7
:1019180048C042F04950415C4A504258D8B005D0BE
:101928004150495E42504A5A04D0000E4A6E000E99
:10193800496E4CA62FD088D02C50D96EDA6A020E88
:10194800D926DE50DE10D8B412D02C50D96EDA6AFF
:10195800020ED92601D81ED00500FA6EDE50FD6EA3
:10196800DE50FE6EF850FF6EFA50200E12002C501A
:10197800D96EDA6ADECF31F0DDCF32F031C0D9FF6F
:1019880032C0DAFF200EDF6E2C50D96EDA6ADE2AFA
:10199800000EDD224906D8A04A064928CDE14A288A
:1019A800D8B452D0C9D72C50D96EDA6A020ED926CB
:1019B800DE50DE10D8B424D02C50D96EDA6A020E6C
:1019C800D92601D81AD00500FA6EDE50FD6EDE5019
:1019D800FE6EF850FF6EFA503FC0F6FF40C0F7FFAA
:1019E800F86A0F0EF76403D00800F55005D0F6CF5B
:1019F800E1FFF7CFE2FFE75012003F4A402A24D028
:101A08003FC0F6FF40C0F7FFF86A2C50D96EDA6A7B
:101A1800DECF31F0DDCF32F031C0D9FF32C0DAFF8E
:101A28000F0EF76403D00800F55005D0F6CFE1FF9C
:101A3800F7CFE2FFE750DF6E3F4A402A2C50D96EBD
:101A4800DA6ADE2A000EDD224106D8A042064128C5
:101A5800AAE14228D8A4A7D74CB630D095EF12F007
:101A68002C50D96EDA6A020ED926DE50DE10D8B4B0
:101A780012D02C50D96EDA6A020ED92601D81ED09F
:101A88000500FA6EDE50FD6EDE50FE6EF850FF6EF9
:101A9800FA50200E12002C50D96EDA6ADECF31F0DF
:101AA800DDCF32F031C0D9FF32C0DAFF200EDF6E51
:101AB8002C50D96EDA6ADE2A000EDD224906D8A03B
:101AC8004A064928CDE14A28D8B495EF12F0C8D77C
:101AD8002FC0D9FF30C0DAFFDF50DF2ADF2AD96EE6
:101AE800DA6ADF504B6E4B0E3F6E406A000E426E54
:101AF800010E416EFDD6C00E4C1238D02D50316EFD
:101B08002E50326E2D4A2E2A31C0F6FF32C0F7FF12
:101B1800F86A0F0EF76403D00800F55005D0F6CF29
:101B2800E1FFF7CFE2FFE7504B6E4B50000AD8B405
:101B3800B0EF12F0580AD8B4A3D63B0AD8B4C8D725
:101B4800070AD8B413D00D0AD8B410D0050AD8B4EF
:101B580093D6030AD8B492D61C0AD8B494D6060AE7
:101B6800D8B4C9D70D0AD8B48CD6BDD74CC031F07B
:101B7800C00E3116D8A433D04CA812D02FC0D9FF2C
:101B880030C0DAFF040EDF26DF5CD96EDA6ADECFFA
:101B980043F0DECF44F0DECF45F0DECF46F012D082
:101BA8002FC0D9FF30C0DAFFDF50DF2ADF2AD96E15
:101BB800DA6ADECF43F0DDCF44F0000E44BEFF0EFC
:101BC800456E466E46AE32D0030E4C12461E451E7A
:101BD800441E436C000E44224522462227D04CA8BE
:101BE80012D02FC0D9FF30C0DAFF040EDF26DF5C29
:101BF800D96EDA6ADECF43F0DECF44F0DECF45F0AF
:101C0800DECF46F013D02FC0D9FF30C0DAFFDF5047
:101C1800DF2ADF2AD96EDA6ADECF31F0DDCF32F083
:101C280031C043F032C044F0456A466A4750481014
:101C3800D8A463D04350441045104610D8A45DD0B2
:101C4800474A482A5AD0010E4B6E0A0E4B18D8B490
:101C580062D04B50040D110EF324F66EDF0EF42003
:101C6800F76E0900F550435C0900F5504458090027
:101C7800F55045580900F5504658D8A04CD04B2A85
:101C8800E4D7010E4B6E080E4B18D8B444D04B5015
:101C9800040D390EF324F66EDF0EF420F76E0900FA
:101CA800F550435C0900F55044580900F550455873
:101CB8000900F5504658D8A02ED04B2AE4D7010E7B
:101CC8004B6E0B0E4B18D8B426D04B50040DE50EB6
:101CD800F324F66EDE0EF420F76E0900F550435C2F
:101CE8000900F55044580900F55045580900F550C9
:101CF8004658D8A010D04B2AE4D74C50C00B000A45
:101D0800D8B4A1D7400AD8B4DAD7C00AD8B4B9D75A
:101D1800400AD8B498D74B50316E326A4750315C7C
:101D28003250800A336E4850800A3358D8B003D0F6
:101D380047C04BF010D04B50316E326A3150475C7F
:101D48004850800A336E3250800A3358D8B003D0D6
:101D58004BC047F0486A49504A10D8B409D04CC023
:101D680031F0030E3116D8B403D04906D8A04A067C
:101D78004DAC13D04950475C4850800A316E4A50E8
:101D8800800A3158D8B005D04750495E48504A5A61
:101D980004D0000E4A6E000E496EC40E4C14316E0B
:101DA800080E4D14326E400E31180CE1080E321830
:101DB800D8A408D049504A10D8B422D04906D8A08F
:101DC8004A061ED0C00E4C14316E080E4D14326EE9
:101DD800800E311815E1080E3218D8A411D04ABE69
:101DE8000BD04A5004E1030E495CD8A005D0FE0E82
:101DF8004926FF0E4A2204D0000E4A6E000E496E94
:101E08004B50316E326A4950315C3250800A336E21
:101E18004A50800A3358D8B005D04B50495E000E5E
:101E28004A5A04D0000E4A6E000E496E4CA40CD1DA
:101E38004CC031F0030E3116D8B428D02C50D96ECE
:101E4800DA6A020ED926DE50DE10D8B412D02C5031
:101E5800D96EDA6A020ED92601D8C0D00500FA6E0A
:101E6800DE50FD6EDE50FE6EF850FF6EFA502D0EFD
:101E780012002C50D96EDA6ADECF31F0DDCF32F0A5
:101E880031C0D9FF32C0DAFF2D0E29D04CA029D09D
:101E98002C50D96EDA6A020ED926DE50DE10D8B47C
:101EA80012D02C50D96EDA6A020ED92601D896D0F3
:101EB8000500FA6EDE50FD6EDE50FE6EF850FF6EC5
:101EC800FA50200E12002C50D96EDA6ADECF31F0AB
:101ED800DDCF32F031C0D9FF32C0DAFF200EDF6E1D
:101EE80077D0C00E4C14316E080E4D14326E800E31
:101EF800311874E1080E3218D8A470D02C50D96E5D
:101F0800DA6A020ED926DE50DE10D8B412D02C5070
:101F1800D96EDA6A020ED92601D81ED00500FA6EEB
:101F2800DE50FD6EDE50FE6EF850FF6EFA50300E39
:101F380012002C50D96EDA6ADECF31F0DDCF32F0E4
:101F480031C0D9FF32C0DAFF300EDF6E2C50D96EA7
:101F5800DA6ADE2A000EDD222C50D96EDA6A020E09
:101F6800D926DE50DE10D8B41CD04CBA04D0000EEE
:101F7800366E780E03D0000E366E580E356E2C5025
:101F8800D96EDA6A020ED92601D828D00500FA6E71
:101F9800DE50FD6EDE50FE6EF850FF6EFA50355082
:101FA80012004CBA04D0000E386E780E03D0000E22
:101FB800386E580E376E2C50D96EDA6ADECF31F093
:101FC800DDCF32F031C0D9FF32C0DAFF37C0DFFFD2
:101FD8002C50D96EDA6ADE2A000EDD2249504A10EA
:101FE800D8B45AD22C50D96EDA6A020ED926DE50ED
:101FF800DE10D8B412D02C50D96EDA6A020ED92667
:1020080001D81ED00500FA6EDE50FD6EDE50FE6E61
:10201800F850FF6EFA50300E12002C50D96EDA6A62
:10202800DECF31F0DDCF32F031C0D9FF32C0DAFF78
:10203800300EDF6E2C50D96EDA6ADE2A000EDD22F1
:102048004906D8A04A06CAD749504A10D8A44CB65F
:1020580035D02C50D96EDA6A020ED926DE50DE1041
:10206800D8B412D02C50D96EDA6A020ED92601D80B
:102078001ED00500FA6EDE50FD6EDE50FE6EF85082
:10208800FF6EFA50200E12002C50D96EDA6ADECF9D
:1020980031F0DDCF32F031C0D9FF32C0DAFF200E87
:1020A800DF6E2C50D96EDA6ADE2A000EDD22490670
:1020B800D8A04A0649504A10D8A4CBD74CC031F012
:1020C800030E3116D8B428D02C50D96EDA6A020E15
:1020D800D926DE50DE10D8B412D02C50D96EDA6A68
:1020E800020ED92601D848D00500FA6EDE50FD6EE2
:1020F800DE50FE6EF850FF6EFA502D0E12002C5076
:10210800D96EDA6ADECF31F0DDCF32F031C0D9FFD7
:1021180032C0DAFF2D0E29D04CA02ED02C50D96E0B
:10212800DA6A020ED926DE50DE10D8B412D02C504E
:10213800D96EDA6A020ED92601D81ED00500FA6EC9
:10214800DE50FD6EDE50FE6EF850FF6EFA50200E27
:1021580012002C50D96EDA6ADECF31F0DDCF32F0C2
:1021680031C0D9FF32C0DAFF200EDF6E2C50D96E95
:10217800DA6ADE2A000EDD22C00E4C14316E080E1B
:102188004D14326E400E31182DE1080E3218D8A4C5
:1021980029D02C50D96EDA6A020ED926DE50DE100C
:1021A800D8B412D02C50D96EDA6A020ED92601D8CA
:1021B80073D10500FA6EDE50FD6EDE50FE6EF850EB
:1021C800FF6EFA50300E12002C50D96EDA6ADECF4C
:1021D80031F0DDCF32F031C0D9FF32C0DAFF300E36
:1021E800DF6E54D1C00E4C14316E080E4D14326E91
:1021F800800E311803E1080E3218D8A44DD12C50A6
:10220800D96EDA6A020ED926DE50DE10D8B412D0A2
:102218002C50D96EDA6A020ED92601D81ED00500D4
:10222800FA6EDE50FD6EDE50FE6EF850FF6EFA500C
:10223800300E12002C50D96EDA6ADECF31F0DDCFC5
:1022480032F031C0D9FF32C0DAFF300EDF6E2C50C9
:10225800D96EDA6ADE2A000EDD222C50D96EDA6ACF
:10226800020ED926DE50DE10D8B41CD04CBA04D0E9
:10227800000E3A6E780E03D0000E3A6E580E396E84
:102288002C50D96EDA6A020ED92601D805D105007C
:10229800FA6EDE50FD6EDE50FE6EF850FF6EFA509C
:1022A800395012004CBA04D0000E3C6E780E03D0A0
:1022B800000E3C6E580E3B6E2C50D96EDA6ADECF9B
:1022C80031F0DDCF32F031C0D9FF32C0DAFF3BC088
:1022D800DFFFDCD047C031F048C032F0D89031364B
:1022E8003236D89031363236110E3124F66EDF0E82
:1022F8003220F76E0900F5CF15F00900F5CF16F07A
:102308000900F5CF17F00A00F5CF18F043C011F017
:1023180044C012F045C013F046C014F05BEC50F016
:1023280011C023F012C024F013C025F014C026F009
:102338000A0E276E000E286E000E296E000E2A6EF9
:10234800CBEC52F0235069D043C011F044C012F0D6
:1023580045C013F046C014F047C031F048C032F011
:10236800D89031363236D89031363236390E31245B
:10237800F66EDF0E3220F76E0900F5CF15F0090072
:10238800F5CF16F00900F5CF17F00A00F5CF18F0D1
:102398005BEC50F011500F0B346E4CBA04D0930E16
:1023A8003D6EF90E03D0820E3D6EF90E3E6E34502E
:1023B8003D24316E000E3E20326E31C0F6FF32C031
:1023C800F7FF0800F5CF4BF039D043C011F044C0F7
:1023D80012F045C013F046C014F047C031F048C0B1
:1023E80032F0D89031363236D89031363236E50E62
:1023F8003124F66EDE0E3220F76E0900F5CF15F0A7
:102408000900F5CF16F00900F5CF17F00A00F5CF4F
:1024180018F05BEC50F01150070B300F4B6E0ED0DC
:102428004C50C00B000AD8B455D7400AD8B4CDD701
:10243800C00AD8B489D7400AD8B44CD72C50D96E22
:10244800DA6A020ED926DE50DE10D8B412D02C502B
:10245800D96EDA6A020ED92601D81ED00500FA6EA6
:10246800DE50FD6EDE50FE6EF850FF6EFA504B5097
:1024780012002C50D96EDA6ADECF31F0DDCF32F09F
:1024880031C0D9FF32C0DAFF4BC0DFFF2C50D96E04
:10249800DA6ADE2A000EDD224706D8A04806472859
:1024A800BFE14828D8A4BCD74CB64ABE3AD04A5057
:1024B80003E14904D8A035D02C50D96EDA6A020E4F
:1024C800D926DE50DE10D8B412D02C50D96EDA6A74
:1024D800020ED92601D81ED00500FA6EDE50FD6E18
:1024E800DE50FE6EF850FF6EFA50200E12002C508F
:1024F800D96EDA6ADECF31F0DDCF32F031C0D9FFE4
:1025080032C0DAFF200EDF6E2C50D96EDA6ADE2A6E
:10251800000EDD224906D8A04A0649504A10D8A420
:10252800CBD72D50316E2E50326E2D4A2E2A31C007
:10253800F6FF32C0F7FFF86A0F0EF76403D0080001
:10254800F55005D0F6CFE1FFF7CFE2FFE7504B6E2D
:102558004B50D8A4D7EF0AF0000E2D6E000E2C6E4B
:102568001200DEEC30F0866FA40E00016F6FF20EE1
:10257800706F8FEC57F001016651D8A451D08E6B63
:1025880027D0AC0E056E030E066E410E01018E2596
:10259800D96EDA6A020EDA22DF500001FB6FFB51B6
:1025A8004B0D590EF324076EDF0EF420086E5EEC17
:1025B80053F005500610D8A409D0410E01018E250C
:1025C800D96EDA6A020EDA22DF50666F01018E2BAD
:1025D800FF0E86250001FB6FFC6BFF0EFC2301013B
:1025E8008E510001FD6FFE6BFB51FD5DFE51800AAF
:1025F800FF6FFC51800AFF59D8A0C3D7AC0E056EF7
:10260800030E066E480E076EFC0E086E5EEC53F065
:1026180005500610D8A49ED2320E0101666F9AD2D8
:102628000301AC51D8A461D20101666B93D28D6BC2
:10263800AC0E8D25D96EDA6A030EDA22DF508E6F62
:102648002E0E8E19D8A415D0AD0E8D25D96EDA6A46
:10265800030EDA22AC0E8D25E16EE26A030EE22249
:10266800DFCFE7FFAD0E8D25D96EDA6A030EDA22C9
:10267800DF6A8D2B8E51D8A4DBD7AC0E086E030E03
:10268800096E97EC4BF008C087F109C088F1010189
:10269800885104E13C0E875DD8A006D0210E875DE5
:1026A800030E8859D8A008D0CE0E00016F6FF40E23
:1026B800706F8FEC57F049D287C105F088C106F0DA
:1026C800076A086A0A0E096E000E0A6E000E0B6E83
:1026D800000E0C6EE8EC53F00A0ED890053606365C
:1026E80007360836E82EF9D7000E0524116E140EA9
:1026F8000620126E000E0720136E000E0820146EBE
:102708003AC215F03BC216F0176A186A5BEC50F033
:1027180011C0C3F112C0C4F113C0C5F114C0C6F191
:102728002DEC2FF012D2AC0E056E030E066EE90EDC
:10273800076EFA0E086E5EEC53F005500610D8A42A
:1027480002D0020E0FD0AC0E056E030E066ED00E30
:10275800076EFC0E086E5EEC53F005500610D8A408
:1027680004D0010E0101846FDBD7AC0E056E030E99
:10277800066E560E076EFC0E086E5EEC53F00550A2
:102788000610D8A4E2D10101846B2DEC2FF06F6BF9
:10279800DCD1AC0E086E030E096E97EC4BF008C046
:1027A80089F109C08AF101018AAF06D0F00E895D6E
:1027B800FF0E8A59D8A00DD08ABF06D08A5109E1E8
:1027C800110E895DD8B005D089C1C9F18AC1CAF195
:1027D800A7D71D0E00016F6FF70E706F8FEC57F0C3
:1027E800B4D1AC0E086E030E096E97EC4BF008C01E
:1027F80089F109C08AF101018AAF06D0D00E895D3E
:10280800FF0E8A59D8A00DD08ABF06D08A5109E197
:10281800310E895DD8B005D089C177F18AC178F1C8
:102828007FD71D0E00016F6FF70E706F8FEC57F09A
:102838008CD1AC0E056E030E066E910E076EFB0E64
:10284800086E5EEC53F005500610D8A402D0010EB5
:102858000FD0AC0E056E030E066ECA0E076EFC0E88
:10286800086E5EEC53F005500610D8A404D0020E92
:102878000101836F55D7AC0E056E030E066EE30E8D
:10288800076EFB0E086E5EEC53F005500610D8A4D8
:102898005CD10101836B44D7AC0E056E030E066E46
:1028A800C40E076EFC0E086E5EEC53F00550061061
:1028B800D8A404D0010E0101826F32D7AC0E056E88
:1028C800030E066E5D0E076EFC0E086E5EEC53F08E
:1028D80005500610D8A439D10101826B21D78E6B1F
:1028E800AC0E056E030E066E8E51090D7F0EF32495
:1028F800076EF00EF420086E5EEC53F005500610DB
:10290800D8A404D08EC181F12DEC2FF001018E2BBB
:10291800080E8E65E5D719D18E6BAC0E056E030EC9
:10292800066E8E510A0D0C0EF324076EF10EF4207C
:10293800086E5EEC53F005500610D8A404D08EC182
:1029480080F12DEC2FF001018E2B040E8E65E5D75A
:10295800FCD08E6BAC0E056E030E066E8E510A0D02
:102968005C0EF324076EF10EF420086E5EEC53F053
:1029780005500610D8A404D08EC17CF12DEC2FF0A0
:1029880001018E2B010E8E65E5D7DFD0AC0E056EEA
:10299800030E066EE30E076EFB0E086E5EEC53F038
:1029A80005500610D8A403D001017F6BB9D6AC0E30
:1029B800056E030E066E4F0E076EFC0E086E5EEC7B
:1029C80053F005500610D8A4C0D0010E01017F6F46
:1029D800A7D68E6BAC0E056E030E066E8E51190DC2
:1029E800000EF324076E040EF420086E5EEC53F01C
:1029F80005500610D8A412D001018E05D8A404D021
:102A08000A0E6619D8B40AD08EC1BCF00001BD6B9D
:102A18000101665176EC32F02DEC2FF001018E2B7E
:102A2800090E8E65D7D791D0AC0E056E030E066ED3
:102A3800EA0E076EFC0E086E5EEC53F005500610A9
:102A4800D8A403D001017E6B6BD6AC0E056E030EC5
:102A5800066EE10E076EFC0E086E5EEC53F0055034
:102A68000610D8A472D0010E01017E6F59D68E6B64
:102A7800AC0E056E030E066E8E510A0DD00EF324B1
:102A8800076EF00EF420086E5EEC53F00550061049
:102A9800D8A404D08EC17AF12DEC2FF001018E2B31
:102AA800050E8E65E5D751D0AC0E086E030E096E83
:102AB80097EC4BF008C08BF109C08CF18BC1BCF0CE
:102AC8008CC1BDF00101665176EC32F00101856FD1
:102AD8002DEC2FF08551D8A438D01D0E00016F6F52
:102AE800F70E706F8FEC57F030D001016651020A73
:102AF800D8B4D2D6010AD8B49CD6050AD8B4EFD631
:102B0800010AD8B409D70F0AD8B440D7010AD8B4F3
:102B1800AED7030AD8B45DD7060AD8B404D6020AD9
:102B2800D8B417D7010AD8B482D51E0AD8B431D67A
:102B3800020AD8B456D6070AD8B44BD7020AD8B472
:102B480073D7010AD8B445D7AFD70101666BDEEC5D
:102B580030F0866F010E0101666520D0270E666190
:102B68001DD0700E00016F6FF90E706F0101665174
:102B78004B0D110EF326000EF422590EF32400011A
:102B8800716FDF0EF420726F010166512FEC2BF08C
:102B980053C073F054C074F08FEC57F0100E01015D
:102BA8006619D8B408D0050E6619D8B404D00D0E2D
:102BB8006619D8A4CED22F0E00016F6FF30E706F76
:102BC8008FEC57F0750E00016F6FF40E706F8FEC7D
:102BD80057F0BFD2130E00016F6FF20E706F8FECBB
:102BE80057F04D0E00016F6FFB0E706F8FEC57F0B2
:102BF800240E00016F6FF50E706F8FEC57F0A10E69
:102C080000016F6FF50E706F010160510001716F67
:102C1800726B71BF720727C173F028C174F08FEC13
:102C280057F05E0E00016F6FF20E706F8FEC57F069
:102C380001018E6B9CD0B50E6F6FF90E706F410E4F
:102C480001018E25D96EDA6A020EDA22DF50000100
:102C5800FB6FFB514B0D590EF324716FDF0EF420FF
:102C6800726F410E01018E25D96EDA6A020EDA22E0
:102C7800DF500001FC6FFC514B0D110EF326000EC6
:102C8800F422590EF324736FDF0EF420746F8FEC67
:102C980057F0410E01018E25D96EDA6A020EDA224A
:102CA8000F0EDE18D8A44BD08D6B020E8D6501D0A7
:102CB80055D0E50E00016F6FF90E706F010E01011E
:102CC8008D250001716F726B000E722301018D5109
:102CD800020D710EF324D96E010EF420DA6EDECFE8
:102CE80005F0DDCF06F0000E086E0A0E076E1AEC2E
:102CF80050F005C073F006C074F001018D51020D4B
:102D0800710EF324D96E010EF420DA6EDECF1FF0B7
:102D1800DDCF20F0D1EC57F01FC023F020C024F005
:102D2800000E266E0A0E256ECDEC55F023C075F008
:102D380024C076F08FEC57F001018D2BB6D7410EE9
:102D48008E25D96EDA6A020EDA22DF502FEC2BF0CC
:102D580053C06FF054C070F08FEC57F0A40E000110
:102D68006F6FF20E706F8FEC57F001018E2BFF0E14
:102D780086250001FB6FFC6BFF0EFC2301018E51C1
:102D88000001FD6FFE6BFB51FD5DFE51800AFF6F78
:102D9800FC51800AFF59D8A04ED7F80E6F6FFC0E71
:102DA800706F8FEC57F01DD2780E00016F6FF50E23
:102DB800706F8FEC57F015D2F90E00016F6FF40E9B
:102DC800706F8FEC57F00DD2460E00016F6FF40E46
:102DD800706F8FEC57F005D22D0E00016F6FF60E55
:102DE800706F8FEC57F0FDD1A80E00016F6FF60ED3
:102DF800706F7F0E716FF00E726F8FEC57F0010ECF
:102E080001018E6FEE0E00016F6FFC0E706F0101F5
:102E18008E51090D7F0EF3240001716FF00EF4201E
:102E2800726F8FEC57F001018E2B080E8E65EAD772
:102E3800710E00016F6FF40E706F8FEC57F0D1D1E7
:102E4800110E00016F6FF40E706F8FEC57F0C9D13F
:102E5800310E00016F6FF80E706F0C0E716FF10E6E
:102E6800726F8FEC57F0010E01018E6FEE0E0001AC
:102E78006F6FFC0E706F01018E510A0D0C0EF3245A
:102E88000001716FF10EF420726F8FEC57F00101A1
:102E98008E2B040E8E65EAD7710E00016F6FF40E4B
:102EA800706F8FEC57F09DD1A20E00016F6FF40E7A
:102EB800706F8FEC57F095D1910E00016F6FF70E80
:102EC800706F8FEC57F08DD16E0E00016F6FF30E9F
:102ED800706F71C105F072C106F0000E086E0A0E1F
:102EE800076E1AEC50F005C071F006C072F071C19F
:102EF8001FF072C120F0D1EC57F01FC023F020C0A2
:102F080024F0000E266E0A0E256ECDEC55F023C077
:102F180073F024C074F08FEC57F063D15D0E00019C
:102F28006F6FF90E706F000E716F040E726F8FEC79
:102F380057F0010E01018E6F8E05D8A404D00A0E39
:102F48006619D8B411D0EE0E00016F6FFC0E706FC9
:102F580001018E51190D000EF3240001716F040E4A
:102F6800F420726F8FEC57F001018E2B090E8E65DD
:102F7800E3D7710E00016F6FF40E706F8FEC57F08E
:102F880030D1DC0E00016F6FF30E706F8FEC57F0CD
:102F980028D1C30E00016F6FF10E706F8FEC57F0E0
:102FA80020D1A60E00016F6FF30E706F8FEC57F0F3
:102FB80018D14E0E00016F6FF50E706F8FEC57F041
:102FC80010D16B0E00016F6FF60E706FD00E716F1F
:102FD800F00E726F8FEC57F0010E01018E6FEE0E3E
:102FE80000016F6FFC0E706F01018E510A0DD00E3B
:102FF800F3240001716FF00EF420726F8FEC57F01C
:1030080001018E2B050E8E65EAD7710E00016F6FD8
:10301800F40E706F8FEC57F0E4D0000E8C6F000E3A
:103028008B6F8C5167E1080E8B5DD8B063D04A0E68
:1030380000016F6FF90E706F8BC171F08CC172F067
:10304800180E01018B25D96E020E8C21DA6EDF5025
:1030580020EC58F005C073F006C074F0D890010158
:103068008B35D96E8C35DA6E680ED926020EDA22C7
:10307800DECF23F0DDCF24F0000E266E0A0E256E7B
:103088003DEC54F023C075F024C076F0D8900101CF
:103098008B35D96E8C35DA6E680ED926020EDA2297
:1030A800DECF23F0DDCF24F0000E266E0A0E256E4B
:1030B800CDEC55F023C077F024C078F08FEC57F0B2
:1030C80001018C510CE1070E8B5DD8B008D0F60ECB
:1030D80000016F6FFC0E706F8FEC57F007D0A40ED5
:1030E80000016F6FF20E706F8FEC57F001018B4B80
:1030F8008C2B97D7666B75D08A0E00016F6FF60E12
:10310800706F010166514B0D450EF326000EF42237
:10311800590EF324F66EDF0EF420F76E0900F5CF92
:1031280071F00A00F5CF72F066514B0D470EF32689
:10313800000EF422590EF324F66EDF0EF420F76E1B
:103148000900F5CF73F00A00F5CF74F08FEC57F053
:1031580048D001016651000AD8B43CD5020AD8B457
:1031680023D6010AD8B46CD6050AD8B43DD6010ACC
:10317800D8B46ED60F0AD8B497D6010AD8B421D7D6
:10318800030AD8B4CBD6060AD8B416D6020AD8B4DD
:1031980093D6010AD8B498D61E0AD8B415D6020A0E
:1031A800D8B41AD6070AD8B4B9D6020AD8B4E9D618
:1031B800010AD8B4B3D60E0AD8B4EBD6030AD8B4E9
:1031C800F0D6070AD8B4F5D6020AD8B4F2D63E0A21
:1031D800D8B4EFD6020AD8B4ECD6110AD8B41DD7A1
:1031E8008BD70101696B6B6B1200612B5F51D8B4EF
:1031F80028D1090E5F19D8A447D05E51D8B444D05D
:10320800020E4919D8A408D01C0E216EFA0E226E9F
:10321800000EE5EC57F035D0030E4919D8A408D0B4
:103228000F0E216EFA0E226E000EE5EC57F029D033
:10323800040E4919D8A408D0D30E216EF80E226EB8
:10324800000EE5EC57F01DD0050E4919D8A408D09A
:10325800E80E216EF80E226E000EE5EC57F011D044
:10326800060E4919D8A408D0240E216EF90E226E34
:10327800000EE5EC57F005D0000E0A6E000ED6ECF5
:1032880058F00101616BD6D02BEC59F00101D8053B
:10329800D8A4CBD04D51D8B4C8D07905D8A45ED025
:1032A8004105D8A44FD0870E0001606F010E616FF1
:1032B800400E626FFA0E636F24C264F0656B25C21C
:1032C80066F0676B26C268F0696B27C26AF06B6BA1
:1032D80068EC56F0000E186E870E196E010E1A6E05
:1032E800000E1B6E000EC8EC4AF001014351D8B421
:1032F80012D0870E0001606F010E616F0D0E626FB4
:10330800FB0E636F3FC164F0656B3EC166F0676B8F
:1033180068EC56F00BD0870E0001606F010E616FEC
:10332800640E626FFC0E636F68EC56F0000E186E48
:10333800870E196E010E1A6E020E1B6E7F0EC8ECF8
:103348004AF073D0000E186E910E196EF80E1A6EB0
:10335800000E1B6E000EC8EC4AF067D0020E7919F9
:10336800D8A463D05E51D8B460D00B0E616126D06A
:103378004205D8B423D0870E0001606F010E616F3B
:103388007A0E626FF80E636F010161510A0800013D
:10339800646F0101000ED8A0E82A00080001656FDB
:1033A80068EC56F0000E186E870E196E010E1A6E34
:1033B800000E1B6E000EC8EC4AF037D0870E0001D5
:1033C800606F010E616FA00E626FFC0E636F38C2F2
:1033D80064F039C265F068EC56F0000E186E870E7E
:1033E800196E010E1A6E000E1B6E000EC8EC4AF024
:1033F800870E0001606F010E616F940E626FFC0E04
:10340800636FDE0E646F030E656F68EC56F0000E96
:10341800186E870E196E010E1A6E020E1B6E7F0E45
:10342800C8EC4AF00A0E0101616F010E0A6E000E27
:1034380068EC55F0780E0101616512005F6B22ECB3
:1034480037F001016105D8A402D0396B09D0040E08
:10345800616506D0010E616F3A5101083A6F392B48
:103468006F51D8B4B0D089863C0E626F6FA31DD05F
:103478006D0E146EFB0E156E000E56EC58F0630EB2
:10348800146EFA0E156E020E56EC58F0760E146E87
:10349800FC0E156E040E56EC58F0100E146EFC0E51
:1034A800156E060E56EC58F012006FA51DD0DB0EF7
:1034B800146EFA0E156E000E56EC58F07C0E146E53
:1034C800FC0E156E020E56EC58F05B0E146EFB0ED9
:1034D800156E040E56EC58F0AB0E146EFB0E156EFE
:1034E800060E56EC58F012006FA93DD03A51D8A4F8
:1034F8001DD0640E146EFB0E156E000E56EC58F0BF
:103508008E0E146EFC0E156E020E56EC58F0C30E9D
:10351800146EFB0E156E040E56EC58F0520E146E17
:10352800FB0E156E060E56EC58F01200820E146E45
:10353800FC0E156E000E56EC58F0170E146EFC0EAD
:10354800156E020E56EC58F07C0E146EFB0E156EBE
:10355800040E56EC58F0880E146EFC0E156E060E0E
:1035680056EC58F012006FAD1DD0D30E146EFB0E42
:10357800156E020E56EC58F0870E0001606F010EB2
:10358800616FA50E626FFA0E636F59C164F0656BC7
:1035980068EC56F0870E146E010E156E040E56EC8C
:1035A80058F012006FAF0FD06E0E146EFA0E156E33
:1035B800020E56EC58F0790E146EFA0E156E040EC3
:1035C80056EC58F01200500E5919D8A40FD0D30E4B
:1035D800146EFB0E156E020E56EC58F02C0E146E7F
:1035E800FC0E156E040E56EC58F012008451D8B437
:1035F80003D05151D8A4BFD0000E0A6E000ED6ECED
:1036080058F0040E0A6E010ED6EC58F0100E0A6E31
:10361800060ED6EC58F0000E0A6E070ED6EC58F0DF
:1036280001016FA110D0BB0E146EFB0E156E020EB9
:1036380056EC58F0EF0E146EFA0E156E040E56EC9A
:1036480058F02AEF1FF0020E7019D8A438D03C0E9B
:10365800626F5B0E146EFB0E156E020E56EC58F080
:10366800870E0001606F010E616F020E626FFC0E23
:10367800636F68C223F069C224F0000E266E0A0E3A
:10368800256E3DEC54F023C064F024C065F068C298
:1036980023F069C224F0000E266E0A0E256ECDECCA
:1036A80055F023C066F024C067F068EC56F0870E2A
:1036B800146E010E156E040E56EC58F0C7D3515116
:1036C800D8B425D0760E146EFB0E156E020E56EC8D
:1036D80058F0870E0001606F010E616F030E626F74
:1036E800FB0E636F5CC164F0656B68EC56F001011A
:1036F8005C51D8B403D03C0E626F01D08D6B870E3D
:10370800146E010E156E040E56EC58F09FD37A51C4
:10371800D8B422D0070E4919D8A40FD0B30E146E0E
:10372800FB0E156E020E56EC58F0D10E146EFA0E02
:10373800156E040E56EC58F089D3CB0E146EFB0EA2
:10374800156E020E56EC58F0D10E146EFA0E156E68
:10375800040E56EC58F07AD31E0E146EFC0E156E3D
:10376800020E56EC58F0090E146EFC0E156E040E7F
:1037780056EC58F06BD38405D8B404D0020E8419E3
:10378800D8A464D32F0E056E060E066E110E076EB2
:10379800EE0E086E020E0A6E000E096EBBEC53F0B8
:1037A80001018405D8A415D0A36B0C0EA36501D024
:1037B80010D0790EA325D96EDA6A060EDA22DF6AEE
:1037C800F90EA325D96EDA6A060EDA22DF6AA32B70
:1037D800ECD74451D8A404D025512611D8A40ED032
:1037E800A36B070EA36501D009D08B0EA325D96E54
:1037F800DA6A060EDA22DF6AA32BF3D74451D8B46B
:103808000CD0000E186E250E196EFC0E1A6E020EE4
:103818001B6E800EC8EC4AF042D025512611D8B450
:103828003ED025C1A1F126C1A2F1A1C123F0A2C1B8
:1038380024F0000E266E3C0E256E3DEC54F023C09D
:1038480085F124C086F1A1C123F0A2C124F0000EA5
:10385800266E3C0E256ECDEC55F023C0A1F124C098
:10386800A2F1870E0001606F010E616F0D0E626F8D
:10387800FB0E636F85C164F086C165F0A1C166F077
:10388800A2C167F068EC56F0000E186E870E196E2C
:10389800010E1A6E000E1B6E640EC8EC4AF0010190
:1038A80030AF07D0030EBD5F140EBD6109D02C0EDA
:1038B80006D0030EBD272C0EBD6502D0140EBD6FB9
:1038C800BDC123F1246B000E0201916F030E906FAE
:1038D8002FC11FF030C120F0D1EC57F020BE0ED020
:1038E800205004E1040E1F5CD8A008D0000E0A6E18
:1038F8000A0E096E000E0B6E93EC47F001017B5126
:10390800D8B484D014BF09D01451131116E1E80EAD
:10391800115D030E1259D8B010D0870E0001606FE8
:10392800010E616F330E626FFC0E636F11C164F09C
:1039380012C165F068EC56F05ED014BF09D014517E
:1039480013111EE10B0E115D270E1259D8B018D0B5
:10395800870E00016C6F010E6D6F340E6E6FFA0EDC
:103968006F6F11C170F012C171F013C172F014C100
:1039780073F0030E746F020E756F21EC3FF03BD0AD
:1039880014BF0AD0145120E16E0E115D860E125933
:10399800010E1359D8B018D0870E00016C6F010EB4
:1039A8006D6F9A0E6E6FFA0E6F6F11C170F012C1C3
:1039B80071F013C172F014C173F0030E746F010E2D
:1039C800756F21EC3FF017D0870E00016C6F010E68
:1039D8006D6F3A0E6E6FFC0E6F6F11C170F012C1F1
:1039E80071F013C172F014C173F0030E746F000EFE
:1039F800756F21EC3FF0010E186E870E196E010EDF
:103A08001A6E020E1B6E800EC8EC4AF00201975126
:103A1800D8B411D0000E0101246F6E0E236F000E72
:103A28000201916F020E906F97C209F00A6A0A0E9E
:103A38000B6E93EC47F0020E01017019D8A47DD0EB
:103A48003C0E626F030EBC27590EBC6502D04A0EAD
:103A5800BC6FBCC123F1246B000E0201916F030EF1
:103A6800906F000E0A6E0A0E096E000E0B6E93EC34
:103A780047F001013A51D8B43FD07B51D8B43CD07B
:103A880002012FBF09D02F512E111EE1DE0E2C5D31
:103A9800260E2D59D8B018D0870E00016C6F010E74
:103AA8006D6FF90E6E6FFA0E6F6F2CC270F02DC22B
:103AB80071F02EC272F02FC273F0030E746F010EF4
:103AC800756F21EC3FF02DD0870E00016C6F010E51
:103AD8006D6FDC0E6E6FFC0E6F6F2CC270F02DC216
:103AE80071F02EC272F02FC273F0030E746F000EC5
:103AF800756F21EC3FF015D0870E00016C6F010E39
:103B08006D6F050E6E6FFC0E6F6F68C270F069C244
:103B180071F0726B736B010E746F000E756F21EC90
:103B28003FF0020E186E870E196E010E1A6E010E06
:103B38001B6E550EC8EC4AF012D07051D8A40FD0A5
:103B4800490EA36F5F0EA36501D009D0AF0EA32560
:103B5800D96EDA6A070EDA22DF6AA32BF3D70101DE
:103B68003A51D8B439D0020E8419D8A435D0000EF1
:103B7800246F290E236F000E0201916F010E906FC2
:103B8800000E0A6E0B0E096E000E0B6E93EC47F0DA
:103B9800870E00016C6F010E6D6FE60E6E6FFC0EE6
:103BA8006F6F2FC170F030C171F0000E71BFFF0E42
:103BB800726F736F010E746F000E756F21EC3FF01A
:103BC800020E186E870E196E010E1A6E020E1B6E0B
:103BD8002E0EC8EC4AF035D0A36B020EA36501D0B7
:103BE80030D0870E00016C6F010E6D6FE60E6E6FA0
:103BF800FC0E6F6F0101A351020D710EF324D96EF3
:103C0800010EF420DA6EDECF70F0DDCF71F0000126
:103C1800000E71BFFF0E726F736F010E746F000E8E
:103C2800756F21EC3FF0A3C118F0870E196E010ED5
:103C38001A6E020E1B6E2E0EC8EC4AF00101A32B61
:103C4800CCD7040E0A6E000E68EC55F0000E0A6E12
:103C5800040ED6EC58F001016FA113D03A51D8A444
:103C680008D0BB0E146EFB0E156E050E56EC58F000
:103C7800E8D0EF0E146EFA0E156E050E56EC58F0DD
:103C8800E0D06FAB13D03A51D8A408D0BB0E146E55
:103C9800FB0E156E050E56EC58F0D3D0E50E146EDB
:103CA800FA0E156E050E56EC58F0CBD0020E7019B0
:103CB800D8B41ED0870E0001606F010E616F7F0EB1
:103CC800626FFB0E636F5CC164F0656B68EC56F065
:103CD80001015C51D8B403D03C0E626F01D08C6BEB
:103CE800870E146E010E156E050E56EC58F0A9D00D
:103CF800020E7019D8B497D0A4D0396B8451D8B4B7
:103D080014D0020E8419D8A408D0E90E146EFA0E45
:103D1800156E050E56EC58F094D0D00E146EFC0EAD
:103D2800156E050E56EC58F08CD0392B5B0E146EC0
:103D3800FB0E156E050E56EC58F083D07B51D8B4A7
:103D48001FD0870E00016C6F010E6D6F840E6E6FB1
:103D5800FA0E6F6F2CC270F02DC271F02EC272F085
:103D68002FC273F0030E746F010E756F21EC3FF0D4
:103D7800870E146E010E156E050E56EC58F061D0C4
:103D8800392B7B51D8B41FD0870E00016C6F010E00
:103D98006D6F280E6E6FFA0E6F6F11C170F012C141
:103DA80071F013C172F014C173F0030E746F020E38
:103DB800756F21EC3FF0870E146E010E156E050E1F
:103DC80056EC58F03ED0392B870E0001606F010E7B
:103DD800616FA30E626FFB0E636F68C223F069C246
:103DE80024F0000E266E0A0E256E3DEC54F023C01A
:103DF80064F024C065F068C223F069C224F0000EA4
:103E0800266E0A0E256ECDEC55F023C066F024C050
:103E180067F068EC56F0870E146E010E156E050EED
:103E280056EC58F00ED03951010AD8B47FD7030A9E
:103E3800D8B484D7010AD8B4A4D7070AD8B4C4D749
:103E48005CD7000E0A6E070ED6EC58F001016251DD
:103E5800D8B403D08986620712008996120000013F
:103E6800CF6F000E0001DE6F000EDD6F000ED16F08
:103E7800000ED06F000ED36F000ED26F20EEC5F08B
:103E8800070EDE6AE806FDE2DA6B020E0201181977
:103E9800D8A412D00101D151355DD2513659D8B0CC
:103EA8000BD08251D8A408D00A0E3503F3CFBCF04A
:103EB800F4CFBDF0360308D00A0E0101D103F3CFC9
:103EC800BCF0F4CFBDF0D203F3500001BD27BCC055
:103ED80033F1BDC034F102013E513F11D8B404D0D2
:103EE8003EC233F13FC234F1020E0101816104D0B8
:103EF80033C100F334C101F30001DF6B180EDF2575
:103F0800D96EDA6A020EDA22020EDE18D8A41FD0A1
:103F1800DD4BDE2BDF51020D000EF324D96E030EAC
:103F2800F420DA6EDE50D027DD50D123DF51020DA8
:103F3800680EF324D96E020EF420DA6EDE50D22712
:103F4800DD50D323DF5103EC57F00001DA27DF2BD4
:103F5800070EDF65D3D7CF51D8A479D0020E01015F
:103F68008419D8B474D0020E816120D0CC5104E1F8
:103F78000A0ECB5DD8A01AD00A0ECB03F3CFBCF043
:103F8800F4CFBDF0CC03F3500001BD2701012F5140
:103F98000001BC5D236E010130510001BD59246E42
:103FA800000E266E030E256E3DEC54F00A0E01013C
:103FB800D303F3CFBCF0F4CFBDF0D403F35000012A
:103FC800BD27010131510001BC5DD86F010132519B
:103FD8000001BD59D96FD9BF10D0D95103E1D80517
:103FE800D8A00BD0D8C005F0D9C006F0000E086ED6
:103FF800040E076E1AEC50F013D0640ED803F3CFFA
:10400800BCF0F4CFBDF0D903F350BD27BCC005F018
:10401800BDC006F0000E086E640E076E1AEC50F074
:10402800055001012D2706502E232EAF04D0000E77
:104038002E6F000E2D6F2EBF0AD0210E2D5D030EA0
:104048002E59D8A004D0030E2E6F200E2D6F020E0D
:1040580001018419D8A42CD1F60E0001BC6FFF0E03
:10406800BD6FBC5101017703F3CFBEF0F4CFBFF0B1
:104078007803F3500001BF27BD5101017703000108
:10408800F350BF2701012F510001BE25DB6F01014D
:1040980030510001BF21DC6FDCAF33D0DA51BC6F87
:1040A800BD6BF60EBC03F3CFBEF0F4CFBFF0BD037B
:1040B800F350BF27FF0EBC03F350BF27BE51DB5D93
:1040C800DC51800AC06FBF51800AC059D8B002D0F5
:1040D800050E12D0DA51BC6FBD6BBC1FBD1FBC4BA7
:1040E800BD2BBC51DB5DDC51800ABE6FBD51800A1F
:1040F800BE59D8B036D0010E01012D252D6F000E06
:104108002ED0DA510A0DDB51F35CF450800ABC6FF3
:10411800DC51800ABC59D8B010D0DBC005F0DCC037
:1041280006F0DAC007F0086A1AEC50F005500101F1
:104138002D5D2D6F06502E5913D0DA51BC6FBD6B13
:10414800DB51BC5DBD51800ABE6FDC51800ABE598F
:10415800D8B007D0FF0E01012D252D6FFF0E2E219F
:104168002E6F0101CF510001DD03F3CFBCF0F4CF76
:10417800BDF0DE03F350BD270101D0510001DD037E
:10418800F350BD270A0EBC03F3CFBEF0F4CFBFF047
:10419800BD03F350BF27BE5101012D5D0001BF5182
:1041A80001012E59D8A002D02EAF7BD0CF510001EB
:1041B800DD03F3CFBCF0F4CFBDF0DE03F350BD2731
:1041C8000101D0510001DD03F350BD270A0EBC03E5
:1041D800F3CFBEF0F4CFBFF0BD03F350BF27BEC08E
:1041E8002DF1BFC02EF101014451D8A45AD00001CD
:1041F800DD51DE11D8B455D00101C751C811D8B46A
:1042080050D00001DCBF4DD0DC5104E10B0EDB5D6A
:10421800D8A047D0DA51BC6FBD6B0101C951CF2579
:104228000001BE6F0101CA51D0210001BF6FBC510E
:10423800BE03F3CFC0F0F4CFC1F0BF03F350C127E2
:10424800BD51BE03F350C1270A0EC003F3CFC2F01D
:10425800F4CFC3F0C103F350C32701012F5100016C
:10426800C25DC351800AC46F01013051800A000148
:10427800C459D8B016D0010125512611D8A418D098
:104288003C0EC703F3CFBCF0F4CFBDF0C803F35026
:104298000001BD27BCC0BAF0BDC0BBF0EEEC55F0C4
:1042A80007D0000E0001BB6F000EBA6FEEEC55F0A0
:1042B8008105D8A423D00A0ECD03F3CFBCF0F4CFE8
:1042C800BDF0CE03F3500001BD2701012D510001BF
:1042D800BC5D01012E510001BD59D8B00FD00A0EA6
:1042E8000101CD03F3CFBCF0F4CFBDF0CE03F35002
:1042F8000001BD27BCC02DF1BDC02EF10001D25177
:104308000101315D0001D46FD3510101325900011F
:10431800D56FD5AF04D0000ED56F000ED46F010154
:104328008451D8A416D08105D8A40FD00A0ECD0385
:10433800F3CFBCF0F4CFBDF0CE03F3500001BD279E
:10434800BCC02DF1BDC02EF104D033C12DF134C154
:104358002EF10001DD51DE11D8B41200CF51D8B4CE
:1043680018D0020E01018419D8B413D00A0ED30351
:10437800F3CFBCF0F4CFBDF0D403F3500001BD2758
:10438800D451BC5D01012D6F0001D551BD5901010A
:104398002E6F01012EBF41D0CF510001DD03F3CFB5
:1043A800BCF0F4CFBDF0DE03F350BD270101D051BE
:1043B8000001DD03F350BD270A0EBC03F3CFBEF0A6
:1043C800F4CFBFF0BD03F350BF27BE5101012D5DEF
:1043D8000001BF5101012E59D8A01FD0020E841927
:1043E800D8B430BF42D0305104E10B0E2F5DD8A0B5
:1043F8003CD00A0ED303F3CFBCF0F4CFBDF0D40306
:10440800F3500001BD27010131510001BC5D0101DC
:1044180032510001BD59D8B028D00101CF51000157
:10442800DD03F3CFBCF0F4CFBDF0DE03F350BD27BE
:104438000101D0510001DD03F350BD270A0EBC0372
:10444800F3CFBEF0F4CFBFF0BD03F350BF27BEC01B
:104458002DF1BFC02EF101015A2BF30E00016F6F31
:10446800F90E706F8FEC57F002D001015A6B010101
:104478002D510001D05DD151800ABC6F01012E5130
:10448800800A0001BC59D8B004D0D0C02DF1D1C0E9
:104498002EF12DC1D6F02EC1D7F00101446B0001D9
:1044A800DF6B180EDF25D96EDA6A020EDA22020EE9
:1044B800DE18D8A4ADD0DF51080D960EF324D96EBE
:1044C800020EF420DA6EDF50D8A432D0010E0101BA
:1044D800446F0001DF51080D940EF324D96E020ECB
:1044E800F420DA6EDF50D8B412D0DF51080D980EE0
:1044F800F324D96E020EF420DA6E010EDB5004E1CB
:10450800280EDE5CD8A014D0DFC0BEF111D00101A6
:104518004651D8A40DD0DFC047F1456B0201286B86
:10452800296B2A6B2B6BC7EC58F0580E0101466FAC
:1045380001014451D8A414D0020E8419D8A468D01B
:104548000001DF51080D980EF324D96E020EF420F5
:10455800DA6E010EDB505CE1280EDE5CD8B058D074
:1045680001014551D8B425D00001DF510101471997
:10457800D8A41FD0020ECF250001BC6F000E010188
:10458800D0210001BD6F0A0EBC03F3CFBEF0F4CFFB
:10459800BFF0BD03F350BF27DF51020D680EF324AF
:1045A800D96E020EF420DA6EBEC0DEFFBFC0DDFF9A
:1045B80016D00A0ECF03F3CFBCF0F4CFBDF0D00372
:1045C800F3500001BD27DF51020D680EF324D96EA8
:1045D800020EF420DA6EBCC0DEFFBDC0DDFFDF5185
:1045E800C50FD96EDA6A010EDF6EDD07D8A0DE07C7
:1045F800DF51020D680EF324D96E020EF420DA6E34
:10460800DE50D65FDD50D75BD2C02DF1D3C02EF17E
:104618000001DF2B070EDF6544D7DF6BD6C005F03E
:10462800D7C006F0DDC007F0DEC008F01AEC50F085
:1046380005C0CDF006C0CEF0180E0001DF25D96EFA
:10464800DA6A020EDA22020EDE18D8A440D0DF5150
:10465800C50FD96EDA6ADF50D8A439D0DF51020D00
:10466800000EF324D96E030EF420DA6EDE50CD5D11
:10467800DE50CE59D8A02BD0DF51020D000EF32406
:10468800D96E030EF420DA6EDF51020D680EF324A2
:10469800E16E020EF420E26EDECFE6FFDDCFE5FF2D
:1046A800DF51C50FD96EDA6A010EDF6EDD07D8A0BB
:1046B800DE07DF51020D680EF324D96E020EF420D6
:1046C800DA6EDE50D65FDD50D75BDF6B01D0DF2BB3
:1046D800080EDF6104D0DD51DE11D8A49FD7DF6B4F
:1046E800DD51DE11D8B41200180EDF25D96EDA6A52
:1046F800020EDA22020EDE18D8A433D0DF51C50F1D
:10470800D96EDA6ADF50D8A42CD0D6C005F0D7C04D
:1047180006F0DDC007F0DEC008F01AEC50F000012A
:10472800DF51020D680EF324D96E020EF420DA6E02
:1047380005C0DEFF06C0DDFFDF51C50FD96EDA6A9E
:10474800010EDF6EDD07D8A0DE07DF51020D680E0F
:10475800F324D96E020EF420DA6EDE50D65FDD50F7
:10476800D75BDF2B080EDF611200BAD701014E6B51
:104778000CD320EE03F0BA51D926BB51DA22DF5010
:10478800D8A402D0000E120020EE03F0BA51D926A8
:10479800BB51DA22DFAE02D0040E01D0070E526EF2
:1047A800536ABAC036F0BBC037F052505324386E43
:1047B8000001BC51190D0A0EF324D96E040EF42021
:1047C800DA6EDF50396EBC51190D0C0EF324D96E18
:1047D800040EF420DA6EDF503A6EBC51190D120E39
:1047E800F324D96E040EF420DA6EDF50FD0F3B6E11
:1047F80051EC3CF05350040DF3CF44F0F4CF45F0A6
:1048080044500001BD25D96E4550BE21DA6E36C030
:10481800DEFF37C0DEFF38C0DEFF39C0DEFF070E1F
:104828005218D8A4E9D05350D8A428D05350040D16
:10483800F3CF44F0F4CF45F04450BD25D96E455030
:10484800BE21DA6EDECF11F0DECF12F0DECF13F02C
:10485800DECF14F00A0E156E000E166E000E176EDF
:10486800000E186EFCEC4BF011C01FF012C020F0C7
:10487800D1EC57F01FC03AF220C03BF2C3C105F09B
:10488800C4C106F0000E06BEFF0E076E086E535038
:10489800040DF3CF44F0F4CF45F044500001BD259A
:1048A800D96E4550BE21DA6EDECF09F0DECF0AF0B0
:1048B800DECF0BF0DECF0CF0E8EC53F005C011F0C2
:1048C80006C012F007C013F008C014F0000E156EF1
:1048D800040E166E000E176E000E186EFCEC4BF0F0
:1048E8005350040DF3CF46F0F4CF47F04650000183
:1048F800BD25D96E4750BE21DA6E11C0DEFF12C049
:10490800DEFF13C0DEFF14C0DEFF0101D45104E155
:10491800650ED35DD8A032D05350040DF3CF44F0C8
:10492800F4CF45F044500001BD25D96E4550BE2155
:10493800DA6EDECF46F0DECF47F0DECF48F0DECFCE
:1049480049F0D89046344A6E47344B6E48344C6E22
:1049580049344D6E5350040DF3CF4EF0F4CF4FF061
:104968004E50BD25D96E4F50BE21DA6E4AC0DEFFCB
:104978004BC0DEFF4CC0DEFF4DC0DEFF5350040DC0
:10498800F3CF44F0F4CF45F044500001BD25D96E73
:104998004550BE21DA6E030EDBBE2BD05350040DFA
:1049A800F3CF44F0F4CF45F04450BD25D96E4550BF
:1049B800BE21DA6E030EDBBE0CD0030EDB5019E10C
:1049C800020EDB5016E1010EDB5013E1DE04D8B015
:1049D80010D05350040DF3CF44F0F4CF45F04450B9
:1049E800BD25D96E4550BE21DA6EDE6ADE6ADE6A02
:1049F800DD6A010E01014E6F532A020E5364D1D6AF
:104A0800000120EE01F0BA51D926BB51DA22130E6B
:104A1800DF6407D0BAC0D9FFBBC0DAFFDF5001019D
:104A28004D6F01014D51D8B4CAD0000120EE28F0D5
:104A3800BA51D926BB51DA22DF50010B0101436F6D
:104A4800000120EE28F0BA51D926BB51DA22DF50F6
:104A5800446ED8904430010B0101416F000120EEF3
:104A680028F0BA51D926BB51DA22DF50446ED890CB
:104A78004432D8904430010B0101426F000120EE0E
:104A880029F0BA51D926BB51DA22DF500101406F13
:104A9800000120EE2AF0BA51D926BB51DA22DF50A4
:104AA80001013F6F000120EE2BF0BA51D926BB510E
:104AB800DA22DF5001013E6F000120EE2CF0BA51DE
:104AC800D926BB51DA22DF5001013D6F000120EEEB
:104AD8002DF0BA51D926BB51DA22DF5001013C6FC3
:104AE800000120EE2EF0BA51D926BB51DA22DF5050
:104AF80001013B6F000120EE2FF0BA51D926BB51BE
:104B0800DA22DF500201406F000120EE30F0BA5186
:104B1800D926BB51DA22DF500201246F000120EEB2
:104B280031F0BA51D926BB51DA22DF500201256F84
:104B3800000120EE32F0BA51D926BB51DA22DF50FB
:104B48000201266F000120EE33F0BA51D926BB517D
:104B5800DA22DF500201276F000120EE37F0BA5148
:104B6800D926BB51DA22DF50446E20EE36F0BA5116
:104B7800D926BB51DA22DF50456E44500201386F06
:104B880045C039F2536A53500001BA25446E000EED
:104B9800BB21456E380E4424D96E000E4520DA6ECE
:104BA8005350E508E16E000ED8A0E82A0308E26E2B
:104BB800DFCFE7FF532A070E5364E5D703D0436BD3
:104BC800416B426B000120EE01F0BA51D926BB516E
:104BD800DA220F0EDF6433D0070E5218D8A42FD074
:104BE800010E01014F6F7C51446E456AD8904436DE
:104BF8004536000120EE01F0BA51D926BB51DA2220
:104C0800DF50030B466E476A4450461804E145508E
:104C18004718D8B4E9D1020E01018161E5D1080E27
:104C28000001B76F000EB66FD89001017C35000106
:104C3800B86FB96BB9370A0EEAEC56F0D5D1010155
:104C48004F6BD2D1BAC036F0BBC037F0030E386E06
:104C5800BC51190D0A0EF324D96E040EF420DA6E35
:104C6800DF50396EBC51190D0C0EF324D96E040EA9
:104C7800F420DA6EDF503A6E000E3B6E51EC3CF0D9
:104C8800361E371E364A372A36C050F037C051F024
:104C9800536ABAC036F0BBC037F053C038F00001D1
:104CA800BC51190D0A0EF324D96E040EF420DA6EE5
:104CB800DF50396EBC51190D0C0EF324D96E040E59
:104CC800F420DA6EDF503A6E5050FD0F3B6E51EC17
:104CD8003CF05350040DF3CF44F0F4CF45F044506A
:104CE8000001BD25D96E4550BE21DA6E36C0DEFF03
:104CF80037C0DEFF38C0DEFF39C0DEFF532A020EA0
:104D08005364C7D771D1536ABAC036F0BBC037F005
:104D180053C038F0BC51190D0A0EF324D96E040E95
:104D2800F420DA6EDF50396EBC51190D0C0EF324E5
:104D3800D96E040EF420DA6EDF503A6EBC51190DAC
:104D4800120EF324D96E040EF420DA6EDF50FD0F34
:104D58003B6E51EC3CF05350040DF3CF44F0F4CFCC
:104D680045F044500001BD25D96E4550BE21DA6E8C
:104D780036C0DEFF37C0DEFF38C0DEFF39C0DEFFD9
:104D8800532A020E5364C0D72FD10001BC51010A27
:104D9800D8B4EFD4070AD8B455D7B5D7536ABAC030
:104DA80036F0BBC037F05350030F386E0001BC51CA
:104DB800190D0A0EF324D96E040EF420DA6EDF50B2
:104DC800396EBC51190D0C0EF324D96E040EF42063
:104DD800DA6EDF503A6EBC51190D150EF324D96EF8
:104DE800040EF420DA6EDF503B6E51EC3CF039AE25
:104DF80032D05350040DF3CF44F0F4CF45F0445073
:104E08000001BD25D96E4550BE21DA6EDECF46F0D1
:104E1800DECF47F0DECF48F0DECF49F0461E471E12
:104E2800481E491E462A000E47224822492253504E
:104E3800040DF3CF4AF0F4CF4BF04A50BD25D96E9C
:104E48004B50BE21DA6E46C0DEFF47C0DEFF48C0C9
:104E5800DEFF49C0DEFF532A020E5364A0D7CFD02D
:104E6800536ABAC036F0BBC037F05350050F386EDE
:104E78000001BC51190D0A0EF324D96E040EF4205A
:104E8800DA6EDF50396EBC51190D0C0EF324D96E51
:104E9800040EF420DA6EDF503A6EBC51190D150E6F
:104EA800F324D96E040EF420DA6EDF503B6E51EC19
:104EB8003CF039AE32D05350040DF3CF44F0F4CF68
:104EC80045F044500001BD25D96E4550BE21DA6E2B
:104ED800DECF46F0DECF47F0DECF48F0DECF49F038
:104EE800461E471E481E491E462A000E47224822D3
:104EF80049225350040DF3CF4AF0F4CF4BF04A50F7
:104F0800BD25D96E4B50BE21DA6E46C0DEFF47C0C4
:104F1800DEFF48C0DEFF49C0DEFF532A020E53649D
:104F2800A0D76DD0536ABAC036F0BBC037F0535023
:104F3800070F386E0001BC51190D0A0EF324D96E03
:104F4800040EF420DA6EDF50396EBC51190D0C0EC8
:104F5800F324D96E040EF420DA6EDF503A6EBC5199
:104F6800190D150EF324D96E040EF420DA6EDF50F5
:104F78003B6E51EC3CF039AE32D05350040DF3CFB8
:104F880044F0F4CF45F044500001BD25D96E45509A
:104F9800BE21DA6EDECF46F0DECF47F0DECF48F036
:104FA800DECF49F0461E471E481E491E462A000EFF
:104FB8004722482249225350040DF3CF4AF0F4CF38
:104FC8004BF04A50BD25D96E4B50BE21DA6E46C013
:104FD800DEFF47C0DEFF48C0DEFF49C0DEFF532AC0
:104FE800020E5364A0D70BD00001BC51040AD8B4F8
:104FF800D5D6010AD8B434D70D0AD8B493D7010E40
:105008001200AF6FDEEC30F0AE6F3C0E626F898637
:105018007F05D8B46FA902D081A26F995F51D8A437
:1050280012D0050EAF19D8A40ED03851D8A40BD081
:10503800010E5F6F19C120F21AC121F21BC122F2C1
:105048001CC123F2EDD15F05D8A428D0D00E0201EF
:1050580020250001FB6F070E020121210001FC6FD2
:10506800000E020122210001FD6F000E0201232122
:105078000001FE6F010119510001FB5D01011A5188
:105088000001FC5901011B510001FD5901011C518E
:105098000001FE59D8B002D0020EE7D001015F0529
:1050A800D8A409D0070EAF19D8A405D05F6B386B08
:1050B800F9EC18F0B5D10F0E5F19D8A411D0020E73
:1050C800AF19D8A40DD05E51D8B40AD0000EC36F62
:1050D800040EC46F000EC56F000EC66F5E6BC7D09E
:1050E800010E5F6519D1020EAF19D8B408D0030EAE
:1050F800AF19D8B404D0060EAF19D8A40DD13851C1
:10510800D8A4B7D05E51D8A499D0A4D021C105F0B5
:1051180022C106F0000E086E640E076E030E0A6EBA
:10512800E70E096EAF5113EC54F005C021F106C02B
:1051380022F18CD05F51A0EC35F005C01FF106C0FC
:1051480020F11FC105F020C106F001015F514B0D90
:10515800450EF326000EF422590EF324F66EDF0EE8
:10516800F420F76E0900F5CF07F00A00F5CF08F034
:105178005F514B0D470EF326000EF422590EF3240F
:10518800F66EDF0EF420F76E0900F5CF09F00A007D
:10519800F5CF0AF0AF5113EC54F005C01FF106C06B
:1051A80020F101011F052011D8B4CBD71FC1BCF0D5
:1051B80020C1BDF05F5176EC32F048D05F51A0ECD1
:1051C80035F005C01FF106C020F11FC105F020C150
:1051D80006F001015F514B0D450EF326000EF42237
:1051E800590EF324F66EDF0EF420F76E0900F5CFA2
:1051F80007F00A00F5CF08F05F514B0D470EF32674
:10520800000EF422590EF324F66EDF0EF420F76E2A
:105218000900F5CF09F00A00F5CF0AF0AF5113ECF9
:1052280054F005C01FF106C020F11FC1BCF020C119
:10523800BDF001015F5176EC32F008D05F510A0AE7
:10524800D8B478D7050AD8B461D7B8D7DEEC30F02F
:10525800AE6F0DD05FC10CF0410E0D6E020E0E6EDA
:10526800AEC10FF0AF5185EC51F001015F6F010E37
:10527800C6D0020E3819D8A409D01D511E11D8A4C1
:1052880005D0010E1E6FF40E1D6F32D01D511E1178
:10529800D8B4C6D019510201205D01011A5102018A
:1052A800215901011B510201225901011C5102011E
:1052B8002359D8B0B5D00101386B1E5104E1020E54
:1052C8001D5DD8A0ADD01DC1FBF01EC1FCF00001D2
:1052D800D890FC33FB33D890FC33FB33D890FC33A5
:1052E800FB33FB5101011D5F0001FC5101011E5BF5
:1052F8001D5119250201206F01011E511A210201B9
:10530800216F000E01011B210201226F000E010115
:105318001C210201236F84D0010E5F6572D0050E37
:10532800AF19D8A46ED03851D8A46BD0010E386FFD
:105338005E51D8B43ED05E6B0F0E5F19D8A470D002
:1053480021C105F022C106F0076A086A0A0E096E33
:10535800000E0A6E000E0B6E000E0C6EE8EC53F099
:105368000A0ED8900536063607360836E82EF9D7DD
:10537800000E0524116E140E0620126E000E072072
:10538800136E000E0820146E3AC215F03BC216F0D8
:10539800176A186A5BEC50F011C0C3F112C0C4F16F
:1053A80013C0C5F114C0C6F121C171F122C172F157
:1053B80037D0010E5E6F0F0E5F19D8A40BD071C1E4
:1053C8001FF072C120F0D1EC57F01FC021F120C0AE
:1053D80022F126D0270E5F19D8A422D05F6B5E6B0E
:1053E8006F6B596B5C6B000E0001BB6F000EBA6FE0
:1053F800EEEC55F0F9EC18F02DEC2FF0020E386FAA
:105408000FD0070EAF19D8A40BD0386B000E1E6F43
:10541800000E1D6F000E066E0A0E056E0EEC56F09D
:1054280001013805D8B403D05F05D8A407D15F05BA
:10543800D8A423D0000E0A6E000ED6EC58F0040E45
:105448000A6E010ED6EC58F08F0E146EFA0E156E19
:10545800020E56EC58F0880E146EFB0E156E040EF4
:1054680056EC58F0100E0A6E060ED6EC58F0000EE8
:105478000A6E070ED6EC58F0DED05F514B0D080EC1
:10548800F326000EF422590EF32400016F6FDF0E8D
:10549800F420706F020E13EC51F072D05E51D8B444
:1054A80028D0A40E0001606F010E616F020E626FBA
:1054B800FC0E636F21C123F022C124F0000E266E7A
:1054C8000A0E256E3DEC54F023C064F024C065F04C
:1054D80021C123F022C124F0000E266E0A0E256E8B
:1054E800CDEC55F023C066F024C067F068EC56F0A8
:1054F80033D0A40E0001606F010E616F020E626F5F
:10550800FC0E636F71C11FF072C120F0D1EC57F02F
:105518001FC023F020C024F0000E266E0A0E256E50
:105528003DEC54F023C064F024C065F071C11FF055
:1055380072C120F0D1EC57F01FC023F020C024F036
:10554800000E266E0A0E256ECDEC55F023C066F0CF
:1055580024C067F068EC56F0A40E00016F6F010ECE
:10556800706F040E13EC51F011D05F512FEC2BF03B
:1055780053C06FF054C070F0040E13EC51F006D015
:1055880001015F510F0AD8B489D7EFD72BEC59F036
:10559800A40E0001606F010E616F700E626FFC0E49
:1055A800636F010160510001646F656B64BF65073B
:1055B800000E676F0C0E666F68EC56F0000E186EE2
:1055C800A40E196E010E1A6E000E1B6E060EC8ECA4
:1055D8004AF0A40E0001606F010E616F9A0E626FAF
:1055E800FC0E636F0101AE5161EC57F00001FB6FD7
:1055F800FB51646F656BAEC166F0676B68EC56F083
:10560800000E186EA40E196E010E1A6E010E1B6E96
:10561800400EC8EC4AF0000E186E6A0E196EFC0EA9
:105628001A6E020E1B6E7A0EC8EC4AF0010E0A6E54
:10563800070E68EC55F0020E0101386F19C134F2FB
:105648001AC135F21BC136F21CC137F25D6BAFC10E
:10565800BFF1616B120000016C6F00016C51A0EC8E
:1056680035F005C06DF006C06EF0B1D10101825170
:10567800D8B405D0B40E536EF10E546E12009B0EC2
:10568800536EF10E546E120001018405D8A405D0A2
:10569800AE0E536EF10E546E1200020E8419D8A489
:1056A80005D0A80E536EF10E546E1200940E536E70
:1056B800F10E546E1200780E606F020E616FB80E14
:1056C800626FFC0E636FF00E6D25646FFF0E6E2126
:1056D800656F68EC56F0780E536E020E546E120029
:1056E8006D516E11D8B40FD0780E606F020E616FD5
:1056F800F30E626FFB0E636F6DC064F06EC065F0F1
:1057080068EC56F0E8D77A0E536EF10E546E12001C
:1057180001014851D8B40AD000016D056E11D8A412
:1057280005D0410E536EFC0E546E120001018151DA
:10573800090D7F0EF324536EF00EF420546E120000
:10574800090E6D196E11D8A405D09A0E536EFB0E72
:10575800546E1200780E606F020E616FBE0E626F9B
:10576800FC0E636F6DC064F06EC065F068EC56F0B7
:10577800B2D7780E606F020E616FB80E626FFC0EC2
:10578800636FD00E6D25646FFF0E6E21656F68EC38
:1057980056F0A1D701018305D8A405D0830E536E16
:1057A800F10E546E1200020E8319D8A4ACD7A20EC3
:1057B800536EF10E546E1200010180510A0D0C0E49
:1057C800F324536EF10EF420546E120001017F5140
:1057D800D8B499D78C0E536EF10E546E1200190E70
:1057E8006D03F3CF55F0F4CF56F06E03F350562601
:1057F800000E5524536E040E5620546E12000101FB
:105808007C510A0D5C0EF324536EF10EF420546E95
:105818001200100E6E5DD8B013D0780E606F020EB5
:10582800616F170E626FFB0E636F6DC064F06EC020
:1058380065F06DC066F06EC067F068EC56F04BD747
:10584800780E606F020E616FD60E626FFC0E636F8A
:105858006DC064F06EC065F06DC066F06EC067F034
:1058680068EC56F038D701017E51D8B405D0700ED7
:10587800536EF10E546E1200BF0E536EF10E546E3D
:1058880012003F0E536EFB0E546E12002B0E536E19
:10589800FB0E546E1200350E536EFB0E546E120042
:1058A800210E536EFB0E546E12006DC055F06EC083
:1058B80056F05650000AD8A41DD05550000AD8B446
:1058C800E0D7010AD8B4E2D7030AD8B4E4D7010A6A
:1058D800D8B4E6D70FD0B20E536EFC0E546E120039
:1058E800AC0E536EFC0E546E1200DB0E536EFB0EA4
:1058F800546E12006DC055F06EC056F05650000A36
:10590800D8A415D05550000AD8B4EAD7010AD8B49B
:10591800ECD7030AD8B4DFD70AD0B00E536EFA0E0C
:10592800546E1200BB0E536EFA0E546E12006DC008
:1059380055F06EC056F05650000AD8A407D05550FE
:10594800030AD8B4EAD7070AD8B4ECD7780E606F40
:10595800020E616FF20E626FFC0E636FD20E556E0F
:10596800020E566ED8906D35D96E6E35DA6ED890B7
:10597800D936DA365550D9265650DA22DECF64F0B9
:10598800DECF65F0DECF66F0DECF67F068EC56F06C
:10599800A2D601017A510A0DD00EF324536EF00EEF
:1059A800F420546E1200010179510A0D3E0EF324C1
:1059B800536EF10EF420546E1200BA0E536EF10EAF
:1059C800546E1200A50E536EF20E546E12000001B2
:1059D8006C51020AD8B44AD6010AD8B4DBD6070AF1
:1059E800D8B4B8D6010AD8B4B5D6030AD8B490D674
:1059F800010AD8B4E1D60F0AD8B4E8D6010AD8B457
:105A0800C8D7030AD8B4EBD6010AD8B402D7070A14
:105A1800D8B43AD6010AD8B49DD6030AD8B4EFD67A
:105A28001E0AD8B497D6010AD8B445D6030AD8B402
:105A380057D6010AD8B49DD6070AD8B4D0D6010AD9
:105A4800D8B4E7D6030AD8B40ED7010AD8B4C7D653
:105A58000F0AD8B4DED6010AD8B427D7030AD8B4B7
:105A680049D7010AD8B463D7070AD8B4D2D6010AED
:105A7800D8B46CD7030AD8B4CCD6010AD8B466D740
:105A88003F0AD8B4C6D6010AD8B460D7030AD8B436
:105A9800C0D6010AD8B45AD7060AD8B484D7030A9C
:105AA800D8B44ED6010AD8B488D78CD70101006B78
:105AB800016B000E036F000E026F000E056F000EE3
:105AC800046F000E076F000E066F0A6B0B6B106BEE
:105AD800050E00018019D8A42AD07EC005F07FC029
